:020000040000fa
:080000000002040000000000f2
:020000040000fa
:1000080090020000900200009002000090020000a0
:100018009002000090020000900200009002000090
:100028009002000090020000900200006a12000096
:100038009002000090020000900200009002000070
:10004800a205000090020000900200000e060000c9
:10005800ca05000090020000900200009002000013
:10006800900200009002000090020000960c000030
:100078009002000090020000900200009002000030
:100088009002000090020000900200009002000020
:100098009002000090020000900200009002000010
:1000a8009002000090020000900200009002000000
:1000b80090020000900200009002000090020000f0
:1000c80090020000900200009002000090020000e0
:1000d80090020000900200009002000090020000d0
:1000e80090020000900200009002000090020000c0
:1000f80090020000900200009002000090020000b0
:10010800900200009002000090020000900200009f
:10011800900200009002000090020000900200008f
:10012800900200009002000090020000900200007f
:10013800900200009002000090020000900200006f
:10014800900200009002000090020000900200005f
:10015800900200009002000090020000900200004f
:10016800900200009002000090020000900200003f
:10017800900200009002000090020000900200002f
:10018800900200009002000090020000900200001f
:10019800900200009002000090020000900200000f
:1001a80090020000900200009002000090020000ff
:1001b80090020000900200009002000090020000ef
:1001c80090020000900200009002000090020000df
:1001d80090020000900200009002000090020000cf
:1001e80090020000900200009002000090020000bf
:0801f8009002000090020000db
:020000040000fa
:10020800900200009002000090020000900200009e
:10021800900200009002000090020000900200008e
:100228009002000090020000900200006a12000094
:10023800900200009002000090020000900200006e
:10024800a205000090020000900200000e060000c7
:10025800ca05000090020000900200009002000011
:10026800900200009002000090020000960c00002e
:10027800900200009002000090020000900200002e
:10028800900200009002000090020000900200001e
:10029800900200009002000090020000900200000e
:1002a80090020000900200009002000090020000fe
:1002b80090020000900200009002000090020000ee
:1002c80090020000900200009002000090020000de
:1002d80090020000900200009002000090020000ce
:1002e80090020000900200009002000090020000be
:1002f80090020000900200009002000090020000ae
:10030800900200009002000090020000900200009d
:10031800900200009002000090020000900200008d
:10032800900200009002000090020000900200007d
:10033800900200009002000090020000900200006d
:10034800900200009002000090020000900200005d
:10035800900200009002000090020000900200004d
:10036800900200009002000090020000900200003d
:10037800900200009002000090020000900200002d
:10038800900200009002000090020000900200001d
:10039800900200009002000090020000900200000d
:1003a80090020000900200009002000090020000fd
:1003b80090020000900200009002000090020000ed
:1003c80090020000900200009002000090020000dd
:1003d80090020000900200009002000090020000cd
:1003e80090020000900200009002000090020000bd
:0803f8009002000090020000d9
:020000040000fa
:100400008fa220000eff27000e01880000000000d0
:100410000c0007000031210001002000110007003e
:10042000000020000000e000020032000000020096
:100430000000000082120200000000000040da000c
:100440000000fe004440a900000020000000e00081
:100450000300320000002000a00188004440a800f2
:100460000000060091018800800078000000eb0089
:1004700015003700e280400032a0b4009101ba00bc
:10048000e280400032a0b4009102ba00e280400055
:1004900032a0b4000002eb00472bde00f507b200eb
:1004a000602ce10004003a000059eb008301e900f0
:1004b000fdff3e00040037006128e100010032002a
:1004c0000082eb00040007001101ba000200e00006
:1004d000e8ff3a00000006003159ba008301e90044
:1004e0000c0032002159ba008301e90008003200f3
:1004f0000400e00003003a00e280400032a0b400b3
:10050000f5ff370011d9ba008301e900faff3a007c
:100510008100e800e180400032a0b4000000060045
:100520000040da000000fe0021e2a9009560a90069
:100530009580a9008560a9008580a90000000600bb
:100540008560a9008580a900670160004c11dd006d
:1005500043058000f1ff28008180610082807000e7
:1005600041058800000178000207b2004411de0056
:100570005305800081ff2f00818061008280700020
:1005800051058800680160004311de0061016100cf
:100590004b11dd00a104800001b0a1008280700039
:1005a000a10488000008b2004700de00610060007e
:1005b0004c00dd00a104800001c0a100808070001b
:1005c000a104880000000600421188000011880084
:0805d000111188000000060073
:020000040000fa
:1005d8000000fa0060508000e20f500002003a006c
:1005e80030508000010037000080eb000080fa00e6
:1005f800000006000600fa0010079800210798007e
:1006080060508000e20f5000020032000080eb00d2
:100618002a003700315080002e009000808f500053
:1006280002003d00e0ff2f00240037003150800019
:100638002e00900000805000305088000000eb0031
:10064800000f780012003700525080001e0078001a
:100658009e009000008040001040780061902000cb
:100668008100410080487800505080000000e80078
:100678005050880051508000f00f2000808f5000ab
:10068800020034000000eb00505088001e0fe80004
:100698002e0090009e007800808f5000eaff350001
:1006a800111180000020200000806000e00f500041
:1006b80001003a008580a8000000eb000080fa00e5
:1006c800000006000000fa0060508000e20f5000b1
:1006d80002003a0000488000010037000080eb006b
:1006e8000080fa00000006000600fa0010079800d3
:1006f8002107980060508000e20f5000020032008d
:100708000080eb0024003700014880002e00900094
:10071800808f500002003d00d0ff2f001e003700e0
:10072800014880002e00900000805000004888009a
:100738000000eb00000f7800120037001e00780060
:100748009e009000808040001248800000802000b9
:100758000000410010407800804878001048800070
:100768000000e8001048880011488000f00f2000c1
:10077800808f500002003a000000eb00104888000b
:100788001e0fe8002e0090009e007800808f500019
:10079800eaff35000000eb000080fa0000000600c8
:1007a8001000fa000000eb00004888000000eb0091
:1007b800104888000000eb0020488800f00f200057
:1007c800305088000000eb00405088000000eb002b
:1007d800505088000000eb006050880050ff070070
:1007e800e0fa2f0054ff070080682c0040079800ab
:1007f8006005200050079800d07529006007980010
:100808005e019000ee0090004e0090006cff070023
:1008180013e1a9000000eb0050088800f0702200e6
:10082800700888001221a90091088000f0fc2f00b0
:10083800008060000040a0009008880012c1a90054
:100848008500a9009500a900e2e2a900dee2a9005e
:10085800803e2000010020007f070700e2e2a80098
:1008680000122a00710020007b0707000000eb003f
:10087800000f78000000eb00100798000040eb0024
:10088800604798009300370000488000e00f500050
:100898009000340011488000008020000080400053
:1008a80090407800614f9800004880000000e900ff
:1008b80000488800104880000000e80010488800c0
:1008c80011488000f00f2000808f500002003a008d
:1008d8000000eb00104888001e007800cf80de0082
:1008e8007200200003002000820f5000838f580000
:1008f80078003e0000600100070037001100370053
:10090800200037002f0037003a0037004e0037002c
:1009180059003700630037006e489000e24f5000de
:1009280005003a0010002000000f78000000eb00de
:100938005008880067003700c0ff2f001007980094
:1009480064003700ee48900090c6b30080cf500096
:1009580009003a0020002000000f78000000eb009a
:1009680050088800ee4090006e48900000c040009b
:100978006047980057003700c0ff2f001007980005
:1009880054003700ee48900050c2b30080cf5000aa
:1009980009003a0030002000000f78000000eb004a
:1009a80050088800ee4090006e48900000c040005b
:1009b8006047980047003700c0ff2f0010079800d5
:1009c800440037006e4890000000fb0020079800a4
:1009d800ee4090006e48900000c0400060479800cc
:1009e8000000eb005008880040002000000f78004d
:1009f800380037006e4890000000fb004800dd001a
:100a0800ae0090000080400020079800ee40900063
:100a18006e48900000c04000604798002e0090008b
:100a2800e00f50000500340050002000000f78004f
:100a38000000eb005008880026003700c0ff2f0098
:100a48001007980023003700ee4890006e40900091
:100a580080cf500005003a0060002000000f7800a9
:100a68000000eb00500888001a003700c0ff2f0074
:100a780010079800170037002e0090000000e900ca
:100a8800200798000000eb00500888002e00900016
:100a9800e00f50000e003c0070002000000f7800ae
:100aa8000c0037006e489000e34f500005003a00f4
:100ab80010002000605088000000eb0050088800fb
:100ac80004003700c0ff2f0010079800010037000e
:100ad8000000000021048000001020000080600059
:100ae800e00f500006003a0060508000e00f500010
:100af80003003a001e009000e00f500062ff320031
:100b080013e1a9000000eb005008880021048000d0
:100b18000010200000806000e00f50000300320049
:100b28008500a900c0ff2f00100798009500a800b5
:100b38001e0090000080fa0000000600809fbe00a2
:100b48000000fa008500a90013e1a9000000eb00ed
:100b580050088800e05080008000e80000488000cd
:100b680000804000004888000000eb001051880019
:100b78000000eb00e05088000040eb001eeab700e0
:100b88000080fa004f00be0000400600809fbe00b3
:100b98000000fa008580a90012003700415080004b
:100ba8006090200000804000104078000000fb00aa
:100bb80020118800405080000000e8004050880064
:100bc80041508000f00f2000808f50000200340058
:100bd8000000eb0040508800305080000000e80022
:100be8003050880031508000e00f2000808f500086
:100bf80005003c00111180000020200000806000ea
:100c0800e00f5000e5ff32000080fa004f00be0000
:100c180000400600809fbe00829fbe000200fa00ce
:100c28008560a900b00137001011800064006000e1
:100c3800e00f50000300320030118000004f7800b0
:100c4800a901370001488000e00f2000808f500084
:100c5800a5013c0030118000004f78002148800039
:100c680000802000008040001e4878002048800056
:100c78000000e8002048880021488000f00f20008c
:100c8800808f500002003a000000eb0020488800e6
:100c980060508000e00f500003003a0000488000d8
:100ca8000000e8000048880060508000e10f500014
:100cb80088003a00105180000000e80010518800b8
:100cc800e0508000cf80de0072002000030020008a
:100cd800820f5000838f58007c013e0000600100a5
:100ce8000700370011003700200037002e003700ba
:100cf800390037004c0037005600370060003700d5
:100d08001e407800e24f500006003a001000200014
:100d1800e05088000000eb005008880013e1a800ac
:100d2800710137008500a8006f01370090c6b30035
:100d38009e40780080cf50000a003a002000200032
:100d4800e05088000000eb00500888001ecabf0071
:100d5800804078001e40780000c040001eeab700be
:100d6800610137008500a8005f0137001e40780048
:100d7800ec4f50000a003a0030002000e050880094
:100d88000000eb00500888001ecabf0080407800b1
:100d98001e40780000c040001eeab700520137002c
:100da8008500a800500137001e00fb000051880094
:100db8001ecabf00804078001e40780000c0400076
:100dc8001eeab7000000eb00500888004000200031
:100dd800e0508800440137001e00fb00c800dd0019
:100de8000051800000804000005188001ecabf00ea
:100df800804078001e40780000c040001eeab7001e
:100e080000518000e00f5000050034005000200021
:100e1800e05088000000eb005008880032013700dd
:100e28008500a800300137001ecabf009e40780028
:100e380080cf500005003a0060002000e050880094
:100e48000000eb0050088800270137008500a80043
:100e580025013700005180000000e900005188009a
:100e68000000eb005008880000518000e00f50009f
:100e780018013c0070002000e05088001a0137007b
:100e88001e407800e34f500010003a002000200078
:100e98006050880013e1a9000000eb0050088800aa
:100ea8000000eb00e05088000040eb001eeab700ad
:100eb80011488000105180000080400010488800d0
:100ec8000000eb0010518800070137008500a800da
:100ed8000501370060508000e20f500002013a001f
:100ee800105180000000e80010518800e050800098
:100ef800cf80de00f200200003002000820f5000a7
:100f0800838f5800f8003e00006001000f00370092
:100f18001900370028003700360037004100370035
:100f2800540037005e003700680037007300370050
:100f38007c0037008b00370099003700a400370089
:100f4800b7003700c1003700cb0037001e407800db
:100f5800e24f500006003a0010002000e0508800e0
:100f68000000eb005008880013e1a800de003700fd
:100f78008500a800dc00370090c6b3009e407800ca
:100f880080cf50000a003a0020002000e05088007e
:100f98000000eb00500888001ecabf00804078009f
:100fa8001e40780000c040001eeab700ce0037009f
:100fb8008500a800cc0037001e407800f14f500093
:100fc8000a003a0030002000e05088000000eb00e2
:100fd800500888001ecabf00804078001e40780074
:100fe80000c040001eeab700bf0037008500a80017
:100ff800bd0037001e00fb00005188001ecabf005c
:10100800804078001e40780000c040001eeab7000b
:101018000000eb005008880040002000e0508800e5
:10102800b10037001e00fb00c800dd000051800041
:1010380000804000005188001ecabf008040780030
:101048001e40780000c040001eeab7000051800032
:10105800e00f50000500340050002000e0508800e8
:101068000000eb00500888009f0037008500a800aa
:101078009d0037001ecabf009e40780080cf5000f8
:1010880005003a0060002000e05088000000eb00f6
:1010980050088800940037008500a80092003700a7
:1010a800005180000000e900005188000000eb00ba
:1010b8005008880000518000e00f500087003c0075
:1010c80070002000e0508800870037001e4078003c
:1010d800e34f500007003a000000eb00500888007a
:1010e80080002000e05088000040eb001eeab700b6
:1010f8007d0037008500a8007b0037001e4078007f
:10110800e24f500005003a0090002000e0508800af
:101118000000eb0050088800730037008500a80025
:101128007100370090c6b3009e40780080cf500011
:101138000a003a00a0002000e05088000000eb0000
:10114800500888001ecabf00804078001e40780002
:1011580000c040001eeab700630037008500a80001
:10116800610037001e407800ee4f50000a003a0038
:10117800b0002000e05088000000eb005008880014
:101188001ecabf00804078001e40780000c04000a2
:101198001eeab700540037008500a8005200370047
:1011a8001e00fb00005188001ecabf008040780066
:1011b8001e40780000c040001eeab7000000eb00a7
:1011c80050088800c0002000e05088004600370022
:1011d8001e00fb00c800dd000051800000804000b8
:1011e800005188001ecabf00804078001e40780069
:1011f80000c040001eeab70000518000e00f500018
:1012080005003400d0002000e05088000000eb000a
:1012180050088800340037008500a80032003700e5
:101228001ecabf009e40780080cf500005003a00db
:10123800e0002000e05088000000eb005008880023
:10124800290037008500a8002700370000518000da
:101258000000e900005188000000eb0050088800f9
:1012680000518000e00f50001e003c00f0002000fc
:10127800e05088001c0037001e407800e34f500003
:1012880010003a00100020006050880013e1a90007
:101298000000eb00500888000000eb00e0508800d8
:1012a8000040eb001eeab700114880001051800092
:1012b80000804000104888000000eb0010518800b2
:1012c800090037008500a80007003700000000006b
:1012d8000500370000000000030037000000000090
:1012e800010037000000000010118000610060005c
:1012f800e00f50004cfe3a000080fa004f01be009b
:101308004f00be00004006000000fa00e5e2a90018
:10131800c042a900d3a2a900d382a900cda2a900e6
:10132800d322a900cdc2a900c1c2a900e442a900e4
:10133800c062a900c082a900d362a900d342a90053
:10134800d302a900c1e2a900c0a2a90011e1a90025
:101358001021a90081088000f0fc2f0000806000a7
:10136800800888000000eb0030088800f07f20002b
:101378006008880011e1a800210c800080ff2f0080
:1013880000806000200c88008461a9000000eb0048
:10139800000c8800210c800080ff2f000080600076
:1013a8006000b300200c8800c2a2a900510c800084
:1013b80080ff2f0000806000500c88008a61a9001f
:1013c8000000eb00300c8800510c800080ff2f00db
:1013d800008060006000b300500c8800c3e2a900e0
:1013e800810c800080ff2f0000806000800c880046
:1013f8009061a9000000eb00600c8800810c80005f
:1014080080ff2f00008060006000b300800c88001f
:10141800d502a900b10c800080ff2f000080600079
:10142800b00c88009661a9000000eb00900c8800c1
:10143800b10c800080ff2f00008060006000b300c6
:10144800b00c8800d542a900e10c800080ff2f0075
:1014580000806000e00c88009c61a9000000eb009f
:10146800c00c8800e10c800080ff2f000080600025
:101478006000b300e00c8800d562a900110d80005f
:1014880080ff2f0000806000100d8800a261a90075
:101498000000eb00f00c8800110d800080ff2f0089
:1014a800008060006000b300100d8800c282a900af
:1014b800410d800080ff2f0000806000400d8800f3
:1014c800a861a9000000eb00200d8800410d8000f4
:1014d80080ff2f00008060006000b300400d88008e
:1014e800c262a900710d800080ff2f00008060009b
:1014f800700d8800ae61a9000000eb00500d880057
:10150800710d800080ff2f00008060006000b30034
:10151800700d8800e642a9000080fa00000006006d
:101528000200fa00000f78001e007800cf80de006d
:101538007200200003002000820f5000838f5800a3
:1015480019003e000060010007003700080037005e
:10155800090037000a0037000b0037000c0037007d
:101568000d0037000e003700c242a8000e003700f9
:10157800e7e2a8000c003700d582a8000a0037006f
:10158800d5a2a80008003700d522a8000600370019
:10159800cfa2a80004003700c3c2a8000200370089
:1015a800cfc2a800000000000080fa00000006007a
:1015b8000200fa00000f78001e007800cf80de00dd
:1015c8007200200003002000820f5000838f580013
:1015d80019003e00006001000700370008003700ce
:1015e800090037000a0037000b0037000c003700ed
:1015f8000d0037000e003700c242a9000e00370068
:10160800e7e2a9000c003700d582a9000a003700dc
:10161800d5a2a90008003700d522a9000600370086
:10162800cfa2a90004003700c3c2a90002003700f6
:10163800cfc2a900000000000080fa0000000600e8
:101648000800fa0020079800310798003e00900033
:10165800e00f500006003d003e0090000000ea0048
:10166800100798000000eb00000f78000700370013
:10167800610880003e009000008050000000e800f3
:101688001007980010002000000f78009e009000be
:10169800600880000000e800808f500004003600d9
:1016a800600880000000e800100798000500370077
:1016b8001e009000e00f500002003d000000eb000b
:1016c800100798002e009000cf80de0072002000e6
:1016d80003002000820f5000838f580078003e00de
:1016e80000600100070037001400370021003700b0
:1016f8002e0037003b003700480037005500370000
:10170800610037001e0078000040780061406000ea
:101718000080fb00610060004200dd00321780009d
:10172800b1ff2f0081006100008070003017880031
:101738001e009000500d8800610037001e007800e0
:1017480000407800614060000080fb00610060009c
:101758004300dd001216800071ff2f008100610038
:1017680000807000101688001e009000200d880070
:10177800530037001e007800004078006140600088
:101788000080fb00610060004400dd00121680004c
:10179800f1fe2f00810061000080700010168800a3
:1017a8001e009000f00c8800450037001e007800ed
:1017b80000407800614060000080fb00610060002c
:1017c8004b00dd00a2168000f17f2f008100610030
:1017d80000807000a01688001e009000c00c8800d1
:1017e800370037001e007800004078006140600034
:1017f8000080fb00610060004a00dd00a216800046
:10180800f1bf2f008100610000807000a0168800e1
:101818001e009000900c8800290037001e007800f8
:1018280000407800614060000080fb0061006000bb
:101838004800dd00a2168000f1ef2f008100610052
:1018480000807000a01688001e009000600c8800c0
:101858001b0037001e0078000040780061406000df
:101868000080fb004f00dd0012168000f1ff27000a
:101878008100610000807000101688001e00900032
:10188800300c88000e0037001e00780000407800f9
:10189800614060000080fb00610060004500dd00e1
:1018a80012168000f1fd2f00810061000080700099
:1018b800101688001e009000000c88000000000030
:1018c8000080fa00000006000000fa006000b8007e
:1018d800a0508800b1508800301780004700de0013
:1018e800614060000080fb00805088006000b80004
:1018f800c0508800d1508800301780004900de00b1
:10190800614060000080fb00905088006120a800c2
:101918006160a8008660a9009660a8000080fa00af
:1019280000000600809fbe000000fa008660a90043
:10193800301780004700de00614060000080fb0037
:10194800705088007150800080508000808f500057
:1019580016003200705080008050880030178000d8
:101968004600de00614060008080fb00705080000f
:10197800808f500007003200a0508000b1508000d6
:1019880061004000e0804800a0508800b150880005
:1019980006003700a0508000b15080006100500060
:1019a800e0805800a0508800b150880030178000af
:1019b8004900de00614060000080fb007050880034
:1019c8007150800090508000808f500016003200c7
:1019d8007050800090508800301780004800de006a
:1019e800614060008080fb0070508000808f500054
:1019f80007003200c0508000d150800061004000d4
:101a0800e0804800c0508800d150880006003700a8
:101a1800c0508000d150800061005000e080580024
:101a2800c0508800d15088000080fa004f00be00e6
:101a3800004006000600fa00200798002e009000db
:101a4800e00f500006003a009660a900a050800000
:101a5800b1508000008fbe009660a8000b003700d0
:101a68002e009000e10f500006003a009660a90091
:101a7800c0508000d1508000008fbe009660a80042
:101a8800020037006000b800008fbe001e00be00d4
:101a98000080fa00000006000000fa00c682a900d3
:101aa800c6a2a900c1a2a900c182a900c002a900ba
:101ab800d8e2a900d8c2a900d8a2a9000080fa00db
:101ac800000006000400fa00000f780011079800d3
:101ad8001e007800cf80de00720020000300200086
:101ae800820f5000838f580068003e00006001009c
:101af80007003700120037001d00370028003700a4
:101b0800330037003d0037004800370053003700e6
:101b18001e00900000407800614060000080fb00db
:101b2800610060004400dd0052168000f1fe2f00c5
:101b38008100610000807000501688005300370053
:101b48001e00900000407800614060000080fb00ab
:101b5800610060004500dd0052168000f1fd2f0095
:101b6800810061000080700050168800470037002f
:101b78001e00900000407800614060000080fb007b
:101b8800610060004d00dd0022168000f1ff2d008d
:101b98008100610000807000201688003b0037003b
:101ba8001e00900000407800614060000080fb004b
:101bb800610060004c00dd0022168000f1ff2e005d
:101bc8008100610000807000201688002f00370017
:101bd8001e00900000407800614060000080fb001b
:101be8006100600022168000e1ff2f008100610083
:101bf8000080700020168800240037001e00900026
:101c080000407800614060000080fb0061006000d7
:101c18004700dd00e2168000f1f72f008100610027
:101c280000807000e0168800180037001e00900041
:101c380000407800614060000080fb0061006000a7
:101c48004600dd00e2168000f1fb2f0081006100f4
:101c580000807000e01688000c0037001e0090001d
:101c680000407800614060000080fb006100600077
:101c78004500dd00e2168000f1fd2f0081006100c3
:101c880000807000e0168800000000000080fa0064
:101c9800000006000200fa00000f78001e0078001d
:101ca800e00f500080003500f00f20009e00780003
:101cb800808f50007c003c001e00780000407800b7
:101cc8006140600061406000614060000080fb008e
:101cd800610060004400dd0052168000f1fe2f0014
:101ce8008100610000807000501688001e00780096
:101cf8000080d100000f78001e00780000407800b6
:101d08006140600061406000614060000080fb004d
:101d1800610060004500dd0052168000f1fd2f00d3
:101d28008100610000807000501688001e00780055
:101d38000080d100000f78001e0078000040780075
:101d48006140600061406000614060000080fb000d
:101d5800610060004d00dd0022168000f1ff2d00bb
:101d68008100610000807000201688001e00780045
:101d78000080d100000f78001e0078000040780035
:101d88006140600061406000614060000080fb00cd
:101d9800610060004c00dd0022168000f1ff2e007b
:101da8008100610000807000201688001e00780005
:101db8000080d100000f78001e00780000407800f5
:101dc8006140600061406000614060000080fb008d
:101dd8006100600022168000e1ff2f008100610091
:101de80000807000201688001e0078000080d10056
:101df800000f78001e007800004078006140600005
:101e080061406000614060000080fb00610060008c
:101e18004700dd00e2168000f1f72f008100610025
:101e280000807000e01688001e0078000080d10055
:101e3800000f78001e0078000040780061406000c4
:101e480061406000614060000080fb00610060004c
:101e58004600dd00e2168000f1fb2f0081006100e2
:101e680000807000e01688001e0078000080d10015
:101e7800000f78001e007800004078006140600084
:101e880061406000614060000080fb00610060000c
:101e98004500dd00e2168000f1fd2f0081006100a1
:101ea80000807000e01688000080fa00000006003c
:101eb8000200fa00000f78001e007800cf80de00d4
:101ec8007200200003002000820f5000838f58000a
:101ed80086003e000060010007003700150037004b
:101ee8002400370033003700420037004f00370026
:101ef8005e0037006d00370050168000f00060006b
:101f080010c0b300e08f5000010032000040eb0029
:101f18000080fb00610060004400dd005216800074
:101f2800f1fe2f00810061000080700050168800cb
:101f38006e0037005116800000022000808060008b
:101f480010c0b300e08f5000010032000040eb00e9
:101f58000080fb00610060004500dd005216800033
:101f6800f1fd2f008100610000807000501688008c
:101f78005e0037002116800000002200808060008b
:101f880010c0b300e08f5000010032000040eb00a9
:101f98000080fb00610060004d00dd00221680001b
:101fa800f1ff2d008100610000807000201688007c
:101fb8004e0037002116800000002100808060005c
:101fc80010c0b300e08f5000010032000040eb0069
:101fd8000080fb00610060004c00dd0022168000dc
:101fe800f1ff2e008100610000807000201688003b
:101ff8003e00370020168000e100600010c0b300ea
:10200800e08f5000010032000040eb000080fb0030
:102018006100600022168000e1ff2f00810061004e
:10202800008070002016880030003700e11680001c
:10203800000820008080600010c0b300e08f5000ce
:10204800010032000040eb000080fb0061006000ee
:102058004700dd00e2168000f1f72f0081006100e3
:1020680000807000e016880020003700e11680002c
:10207800000420008080600010c0b300e08f500092
:10208800010032000040eb000080fb0061006000ae
:102098004600dd00e2168000f1fb2f0081006100a0
:1020a80000807000e016880010003700e1168000fc
:1020b800000220008080600010c0b300e08f500054
:1020c800010032000040eb000080fb00610060006e
:1020d8004500dd00e2168000f1fd2f00810061005f
:1020e80000807000e0168800000000000080fa0000
:1020f800000006000000fa002143a90020c0b30038
:1021080024e3b7004119800000fe2f000080600022
:102118000000a0004019880021e3a80028e3a900d6
:102128000080fa00000006000400fa00100798007a
:102138001e009000cf80de00720020000300200007
:10214800820f5000838f580039003e000060010064
:10215800070037000c003700110037001600370061
:102168001b00370020003700250037002a00370001
:102178004119800000fe2f0000806000f000b300cd
:10218800401988002a0037004119800000fe2f00fe
:1021980000806000e000b300401988002400370088
:1021a8004119800000fe2f0000806000d000b300bd
:1021b800401988001e0037004119800000fe2f00da
:1021c80000806000c000b300401988001800370084
:1021d8004119800000fe2f0000806000b000b300ad
:1021e80040198800120037004119800000fe2f00b6
:1021f80000806000a000b300401988000c00370080
:102208004119800000fe2f00008060009000b3009c
:1022180040198800060037004119800000fe2f0091
:10222800008060000030a000401988000000000015
:102238002023a800c000200001002000060107009c
:102248002023a90000000000001980006100600040
:10225800e00f5000fcff3200001880007500b90044
:10226800000078004400de00000f7800f03f2000f6
:102278009e007800808f500002003400f03f20005c
:10228800000f78001e0078000080fa0000000600a9
:102298000000fa00de02a800de22a800e422a8005e
:1022a800e402a800e582a800e5c2a800c0e2a800f0
:1022b800c0c2a8000080fa00000006000400fa006e
:1022c800100798001e009000cf80de0072002000ea
:1022d80003002000820f5000838f580039003e0011
:1022e80000600100070037000c00370011003700bc
:1022f800160037001b003700200037002500370084
:102308002a00370000178000004078006140600014
:102318000080fb00000f78002a00370000178000bb
:102328000000d100614060000080fb00000f7800d1
:1023380024003700301780000000d10061406000a1
:102348000080fb00000f78001e0037003017800067
:1023580000407800614060000080fb00000f7800ba
:1023680018003700301780004c00de006140600024
:102378000080fb00000f7800120037003017800043
:102388004e00de00614060000080fb00000f780016
:102398000c003700101680004700de006140600026
:1023a8000080fb00000f7800060037001016800040
:1023b8004600de00614060000080fb00000f7800ee
:1023c800000000001e0078000080fa0000000600ef
:1023d8000000fa006e0007000080eb00501988002a
:1023e800f0ff200060198800f00f2f00601b8800a4
:1023f80005e1a9000000eb0000088800f0c32900ef
:10240800100888000421a90005a1a800210880005f
:10241800f0fc2f00008060002008880004c1a9009b
:102428008460a9009460a80032ff070098ff0700a5
:1024380099fd0700b4fb070023fd07000080fa00a0
:10244800000006000400fa00008fbe0007003700f5
:1024580000c42900010020007f0007000080eb0075
:102468008080eb001e0f40005e9748001e00be00f3
:10247800e00f5000e08f5800f5ff3c000080fa00a4
:10248800000006000000fa00205180003151800051
:102498000080fa00000006000000fa006000b800a2
:1024a80020518800315188000000eb0000088800a6
:1024b80005e1a8000080fa00000006000000fa000c
:1024c80005e1a9000080fa0000000600809fbe0018
:1024d8000000fa008460a90020518000315180007a
:1024e80061004000e0804800205188003151880098
:1024f8000080fa004f00be00004006000400fa0009
:10250800b3ff07000000eb00000f7800170037004a
:1025180011002000700020006afd070070002000f4
:10252800100798000d003700800c200001002000e3
:10253800c4ff07008000eb001e00900061fd07004b
:102548001e0090000000e900110020005dfd07005a
:102558001e0090000000e900100798001e0090007f
:102568009e0f5000f0ff3c001e0fe8001e00780090
:10257800e70f5000e6ff3400401f20000100200054
:10258800b0ff07000000eb00c2fd0700ddff3700c9
:102598000000fa00e0012000303a8800213a80006b
:1025a800f0f32f0000806000203a8800213a800074
:1025b80000fe2f0000806000203a880032002000d2
:1025c80080072000a109200033742000804978008a
:1025d80081497800824978001200200060042000b8
:1025e8007105200023742000804978008149780013
:1025f8008249780000000000113a8000000027009e
:102608008080600000002300808f5000faff3a00ad
:082618000080fa00000006003a
:020000040000fa
:102620000e0a00000e00000000000000240a000056
:102630000400000000000000000800000e0200007e
:10264000000000001c0a000008000000020000005a
:10265000000000000000000000000000000000007a
:020000040000fa
:10266000f03fb1000180b10006003500ee03090023
:1026700000000000403fb1000180b100fbff3d00c1
:102680001000b000203fb0000200350000800900bb
:0826900000000000000006003c
:020000040000fa
:0200000401f009
:04000c00f8ff0000f9
:020000040000fa
:0200000401f009
:040010007dff000070
:020000040000fa
:0200000401f009
:040014007fff00006a
:020000040000fa
:0200000401f009
:04001c00dfff000002
:00000001FF
