:020000040000fa
:080000000002040000000000f2
:020000040000fa
:1000080090020000900200009002000090020000a0
:100018009002000090020000900200009002000090
:10002800900200009002000090020000ec13000013
:100038009002000090020000900200009002000070
:100048009002000090020000900200006c0b00007b
:10005800160b0000900200009002000090020000c1
:10006800900200009002000090020000c608000004
:100078009002000090020000900200009002000030
:100088009002000090020000900200009002000020
:100098009002000090020000900200009002000010
:1000a8009002000090020000900200009002000000
:1000b80090020000900200009002000090020000f0
:1000c80090020000900200009002000090020000e0
:1000d80090020000900200009002000090020000d0
:1000e80090020000900200009002000090020000c0
:1000f80090020000900200009002000090020000b0
:10010800900200009002000090020000900200009f
:10011800900200009002000090020000900200008f
:10012800900200009002000090020000900200007f
:10013800900200009002000090020000900200006f
:10014800900200009002000090020000900200005f
:10015800900200009002000090020000900200004f
:10016800900200009002000090020000900200003f
:10017800900200009002000090020000900200002f
:10018800900200009002000090020000900200001f
:10019800900200009002000090020000900200000f
:1001a80090020000900200009002000090020000ff
:1001b80090020000900200009002000090020000ef
:1001c80090020000900200009002000090020000df
:1001d80090020000900200009002000090020000cf
:1001e80090020000900200009002000090020000bf
:0801f8009002000090020000db
:020000040000fa
:10020800900200009002000090020000900200009e
:10021800900200009002000090020000900200008e
:10022800900200009002000090020000ec13000011
:10023800900200009002000090020000900200006e
:100248009002000090020000900200006c0b000079
:10025800160b0000900200009002000090020000bf
:10026800900200009002000090020000c608000002
:10027800900200009002000090020000900200002e
:10028800900200009002000090020000900200001e
:10029800900200009002000090020000900200000e
:1002a80090020000900200009002000090020000fe
:1002b80090020000900200009002000090020000ee
:1002c80090020000900200009002000090020000de
:1002d80090020000900200009002000090020000ce
:1002e80090020000900200009002000090020000be
:1002f80090020000900200009002000090020000ae
:10030800900200009002000090020000900200009d
:10031800900200009002000090020000900200008d
:10032800900200009002000090020000900200007d
:10033800900200009002000090020000900200006d
:10034800900200009002000090020000900200005d
:10035800900200009002000090020000900200004d
:10036800900200009002000090020000900200003d
:10037800900200009002000090020000900200002d
:10038800900200009002000090020000900200001d
:10039800900200009002000090020000900200000d
:1003a80090020000900200009002000090020000fd
:1003b80090020000900200009002000090020000ed
:1003c80090020000900200009002000090020000dd
:1003d80090020000900200009002000090020000cd
:1003e80090020000900200009002000090020000bd
:0803f8009002000090020000d9
:020000040000fa
:10040000cfa120000eff27000e0188000000000091
:100410000c00070020492100010020001100070006
:10042000000020000000e000020032000000020096
:100430000000000004140200000000000040da0088
:100440000000fe004440a900000020000000e00081
:100450000300320000002000a00188004440a800f2
:100460000000060091018800800078000000eb0089
:1004700015003700e280400032a0b4009101ba00bc
:10048000e280400032a0b4009102ba00e280400055
:1004900032a0b4000002eb00472bde00f507b200eb
:1004a000602ce10004003a000059eb008301e900f0
:1004b000fdff3e00040037006128e100010032002a
:1004c0000082eb00040007001101ba000200e00006
:1004d000e8ff3a00000006003159ba008301e90044
:1004e0000c0032002159ba008301e90008003200f3
:1004f0000400e00003003a00e280400032a0b400b3
:10050000f5ff370011d9ba008301e900faff3a007c
:100510008100e800e180400032a0b4000000060045
:100520000040da000000fe0003f0a200889fbe0039
:100530008a9fbe008c1f7800f7000700fe00330082
:100540006450e1004f0032006420e10052003200ac
:1005500003826c0007003b000905d0000306d000b1
:10056000820f54000c065d000200390002003200c8
:1005700089017800030678008582550004003d005b
:100580000003fd008103fd008502ea008b85420027
:10059000840f720002003b0060001000e080180031
:1005a0006011b8000005eb007a28e1000a0039006c
:1005b00006007800c75ddd00f707b2008780750090
:1005c0002d003700828171000a017800610560000a
:1005d0008180d1000080d3008502e900f9ff3b0053
:1005e000060440008784480002003b0060041400b9
:1005f000e0841c000988a300070032008a81710092
:1006000082817100610164008904d1000884d300f3
:100610008b05e800170037000978a30013003a00a3
:100620000b00e000130034008b05e90008044400cf
:1006300089844c000a4474000978a3000d003a0034
:100640000b00e000070034008b05e90008044400bb
:1006500089844c0001003a000b0020000978a300b7
:10066000f7ff32000001eb000200370082817100c9
:100670000a0178006d0007000cf0a70001f0a0004f
:10068000b60037006420e10002003a00838f6c005e
:10069000b60033000801be000200be00af00370004
:1006a000889fbe008a9fbe008c1f78009a000700ba
:1006b000a100330003866c006450e1002e0032007c
:1006c0006420e100330032006150e1002f0032006d
:1006d0006120e1003100320085855500eb07b00054
:1006e0000900200008042000050037000804440029
:1006f00089844c000a0031000603430087834b00c5
:100700000001530081815b00f8ff33000203be004b
:100710000800a0000804440089844c00f6ff39005a
:10072000c639dd0083017300010032001300200090
:100730008904d1000884d3000998a3000500320081
:100740000800a7000300a0008904d1000884d3009a
:100750008b05e8008904d1000884d3000001eb0078
:100760000281d2003100070001f0a1000cf0a700c7
:1007700001f0a000790037006420e1007b00320026
:100780000801be000200be00f7ff37006120e10053
:10079000760032006000b800f3ff37000000200050
:1007a00001f82700f0ff370014002000a6003700f2
:1007b000f4ff2f00a40037000001be004100070035
:1007c0000470a70003f0a10003f8a30013003a008f
:1007d0006509b10010003200090035006928e10008
:1007e0000200350001002800000005000000400064
:1007f000818048008502e900fcff3a000000060005
:10080000f88f4200050035008100d1000080d30040
:100810008502e800fcff3a00000006008000eb00c3
:10082000000005006011b800a20037008100200020
:10083000618055000b003d000b00200061fe2f0081
:100840000100e1001d00340082817100610164003b
:100850008904d1000884d3000000e800faff3a00c0
:10086000710020006100640003007000020060005d
:100870000900320061044400e0844c000988a500ae
:10088000050032008b05e8006808e10002003a002c
:100890008904d1000884d300f20f20000258e1003f
:1008a00005003d00c75ddd00f907b20089807500d5
:1008b00008007800000006000bf827008b00780085
:1008c00000000500c70ade00f107b200f50fb20014
:1008d00008003200e1cf4200020032000170a000a7
:1008e00024000500810f700001003200040805009b
:1008f00044000500810f700002003a00140005005a
:100900008502e9000000400081c04800fcff3b0078
:100910000170a000240005000004be00e9ff0700ec
:100920000003be000405be000200be00e5ff070094
:10093000844f7500000006000200be006450e10014
:10094000050036006420e100020036000968a300bb
:1009500001003a000800be000160a0004f067800c8
:100960004f05be004f04be0000000600f0ff2f0040
:10097000f1ff2700f9ff3700889fbe008a9fbe0065
:100980008c1f7800e4ff0700ebff330003866c0048
:100990006450e100240032006420e10027003200ae
:1009a0006150e100220032006120e10021003200ac
:1009b0008b854200eb07b1000134b800003ab80063
:1009c0000804420089844a00013ab8000030b800a7
:1009d0008880400009014a00040033000000400004
:1009e00081804800020149008b05e900c909dd004a
:1009f000830170000100320013002000c814de00e3
:100a00004814dd004709de001200b200c808de000d
:100a10000884700085ff070001f0a1000cf0a7001a
:100a200001f0a000cdff37006120e100cfff3200d0
:100a30000801be000200be00f7ff37006150e10070
:100a4000fcff3a00c9ff3700889fbe008a9fbe00a6
:100a5000841f7800b0ff07004f00780011003300ba
:100a6000f0ff2f00838f6c0006003b00040565003b
:100a70000a00a7000800370009f0a60010002000b7
:100a800008003700820f5400838f5c000300390098
:100a90001000200001003e000000200009f0a70027
:100aa0000000ea004f05be004f04be000000e00059
:100ab00000000600889fbe008a9fbe000082700072
:100ac0000402710004827100260032000004be009e
:100ad0000200be006011b8006b09200095022000e2
:100ae0000182cf000a0039000541b1000082cf0029
:100af000070039000541b1000982cf000400390028
:100b00000541b1000882cf00010039000541b10064
:100b100005425200120032000a003b00828171003f
:100b2000610164008100d1000080d3008984d3007a
:100b30000884d3008b05e8000442e800f7ff3a0080
:100b4000070037000804440089844c000000480076
:100b5000818048008b05e9000442e900f9ff3a0072
:100b600032ff07004f05be004f04be000000060024
:020000040000fa
:100b70000000fa00e5e2a900c042a900d3a2a90042
:100b8000d382a900cda2a900d322a900cdc2a90079
:100b9000c1c2a900e442a900c062a900c082a900a4
:100ba000d362a900d342a900d302a900c1e2a900df
:100bb000c0a2a90011e1a9001021a90081088000ac
:100bc000f0fc2f0000806000800888000000eb002f
:100bd00030088800f07f20006008880011e1a8003c
:100be000210c800080ff2f0000806000200c880016
:100bf0008461a9000000eb00000c8800210c80003b
:100c000080ff2f00008060006000b300200c88008f
:100c1000c2a2a900510c800080ff2f00008060005c
:100c2000500c88008a61a9000000eb00300c88009d
:100c3000510c800080ff2f00008060006000b30036
:100c4000500c8800c3e2a900810c800080ff2f00b7
:100c500000806000800c88009061a9000000eb001b
:100c6000600c8800810c800080ff2f0000806000f5
:100c70006000b300800c8800d502a900b10c800090
:100c800080ff2f0000806000b00c88009661a900f2
:100c90000000eb00900c8800b10c800080ff2f005a
:100ca000008060006000b300b00c8800d542a9004d
:100cb000e10c800080ff2f0000806000e00c8800c5
:100cc0009c61a9000000eb00c00c8800e10c8000d2
:100cd00080ff2f00008060006000b300e00c8800ff
:100ce000d562a900110d800080ff2f0000806000f8
:100cf000100d8800a261a9000000eb00f00c880034
:100d0000110d800080ff2f00008060006000b300a4
:100d1000100d8800c282a900410d800080ff2f00c5
:100d200000806000400d8800a861a9000000eb0071
:100d3000200d8800410d800080ff2f0000806000a2
:100d40006000b300400d8800c262a900710d8000f0
:100d500080ff2f0000806000700d8800ae61a90048
:100d60000000eb00500d8800710d800080ff2f0007
:100d7000008060006000b300700d8800e642a900aa
:100d80000080fa00000006000200fa00000f780060
:100d90001e007800cf80de007200200003002000db
:100da000820f5000838f580019003e000060010040
:100db0000700370008003700090037000a00370035
:100dc0000b0037000c0037000d0037000e00370015
:100dd000c242a8000e003700e7e2a8000c0037006e
:100de000d582a8000a003700d5a2a8000800370065
:100df000d522a80006003700cfa2a80004003700c3
:100e0000c3c2a80002003700cfc2a8000000000043
:100e10000080fa00000006000200fa00000f7800cf
:100e20001e007800cf80de0072002000030020004a
:100e3000820f5000838f580019003e0000600100af
:100e40000700370008003700090037000a003700a4
:100e50000b0037000c0037000d0037000e00370084
:100e6000c242a9000e003700e7e2a9000c003700db
:100e7000d582a9000a003700d5a2a90008003700d2
:100e8000d522a90006003700cfa2a9000400370030
:100e9000c3c2a90002003700cfc2a90000000000b1
:100ea0000080fa00000006000800fa002007980001
:100eb000310798003e009000e00f500006003d0012
:100ec0003e0090000000ea00100798000000eb00d0
:100ed000000f780007003700610880003e00900096
:100ee000008050000000e80010079800100020006b
:100ef000000f78009e009000600880000000e8006d
:100f0000808f500004003600600880000000e80078
:100f100010079800050037001e009000e00f5000f9
:100f200002003d000000eb00100798002e0090002a
:100f3000cf80de007200200003002000820f5000ee
:100f4000838f580078003e000060010007003700e2
:100f500014003700210037002e0037003b00370017
:100f60004800370055003700610037001e00780048
:100f700000407800614060000080fb00610060007c
:100f80004200dd0032178000b1ff2f0081006100b8
:100f900000807000301788001e009000500d8800ff
:100fa000610037001e00780000407800614060005a
:100fb0000080fb00610060004300dd00121680002d
:100fc00071ff2f0081006100008070001016880002
:100fd0001e009000200d8800530037001e0078008e
:100fe00000407800614060000080fb00610060000c
:100ff0004400dd0012168000f1fe2f008100610028
:1010000000807000101688001e009000f00c880010
:10101000450037001e007800004078006140600005
:101020000080fb00610060004b00dd00a216800024
:10103000f17f2f008100610000807000a016880001
:101040001e009000c00c8800370037001e0078009a
:1010500000407800614060000080fb00610060009b
:101060004a00dd00a2168000f1bf2f008100610060
:1010700000807000a01688001e009000900c880070
:10108000290037001e0078000040780061406000b1
:101090000080fb00610060004800dd00a2168000b7
:1010a000f1ef2f008100610000807000a016880021
:1010b0001e009000600c88001b0037001e007800a6
:1010c00000407800614060000080fb004f00dd00c0
:1010d00012168000f1ff270081006100008070007f
:1010e000101688001e009000300c88000e0037009b
:1010f0001e00780000407800614060000080fb0026
:10110000610060004500dd0012168000f1fd2f0037
:101110008100610000807000101688001e009000a1
:10112000000c8800000000000080fa0000000600ab
:101130000000fa006000b80020508800315088009c
:10114000301780004700de00614060000080fb0037
:10115000005088006000b80040508800515088005e
:10116000301780004900de00614060000080fb0015
:10117000105088006120a8006160a8008660a90066
:101180009660a8000080fa0000000600809fbe0064
:101190000000fa008660a900301780004700de00da
:1011a000614060000080fb00f04f8800f14f80003c
:1011b00000508000808f500016003200f04f8000f9
:1011c00000508800301780004600de00614060005b
:1011d0008080fb00f04f8000808f500007003200bd
:1011e000205080003150800061004000e0804800c5
:1011f00020508800315088000600370020508000c1
:101200003150800061005000e0805800205088007c
:1012100031508800301780004900de0061406000d6
:101220000080fb00f04f8800f14f800010508000dc
:10123000808f500016003200f04f80001050880060
:10124000301780004800de00614060008080fb00b5
:10125000f04f8000808f5000070032004050800027
:101260005150800061004000e080480040508800fc
:1012700051508800060037004050800051508000d7
:1012800061005000e08058004050880051508800b4
:101290000080fa004f00be00004006000600fa0081
:1012a000200798002e009000e00f500006003a0042
:1012b0009660a9002050800031508000008fbe0051
:1012c0009660a8000b0037002e009000e10f500040
:1012d00006003a009660a9004050800051508000fe
:1012e000008fbe009660a800020037006000b800c2
:1012f000008fbe001e00be000080fa000000060045
:101300000000fa00004080000080fa0000000600a3
:101310000000fa00605080000080fa000000060023
:101320000000fa00905080000080fa0000000600e3
:101330000200fa002204070060508000e00f500015
:1013400010003400605080000000e9006050880008
:101350007150800020802000008040001040780004
:10136000004f78000100e800705088007150800044
:10137000900f2000808f5000020034000000eb002e
:1013800070508800160407001e4078000080fa00a4
:10139000000006000200fa00004f78000c0407006d
:1013a00090508000e00f50001000340090508000fa
:1013b0000000e90090508800b15080001e40780085
:1013c000c28f200002814000004978000100e8003f
:1013d000b0508800b1508000900f2000808f5000e6
:1013e000020034000000eb00b05088000004070049
:1013f000111180000020200000806000e00f5000ec
:1014000001003a008580a8000080fa000000060074
:101410000200fa000000000060508000e10f500060
:10142000fdff3400e6030700605080000080e90003
:1014300060508800715080002080200000804000b3
:10144000104078000080fb00000f78000100e800e9
:101450007050880071508000900f2000808f5000e5
:10146000020034000000eb007050880071508000d2
:101470002080200000804000104078000080fb00a9
:101480004800dd001e0f70000100e8007050880069
:1014900071508000900f2000808f500002003400b7
:1014a0000000eb0070508800cd0307001e0078009c
:1014b0000080fa00000006000200fa00000f780029
:1014c000c303070090508000e10f5000200034005b
:1014d000905080000080e90090508800b15080005a
:1014e0001e00780000407800c28f2000028140007a
:1014f000004978000100e800b0508800b150800039
:10150000900f2000808f5000020034000000eb009c
:10151000b0508800b15080001e0078004880de0086
:1015200000407800c28f200002814000004978000e
:101530000100e800b0508800b1508000900f2000fa
:10154000808f5000020034000000eb00b050880093
:10155000a703070011118000002020000080600018
:10156000e00f500001003a008580a8000080fa00da
:10157000000006000a00fa003007980041079800b2
:101580009303070090508000e30f50001e003400ca
:101590009050800064005000905088006600470022
:1015a000100798000000eb00000f780013003700d0
:1015b0001e0078009e00900000804000904078005f
:1015c00041479800b0508000c18f2000810040004a
:1015d0004e419000824878000000e800b05088003a
:1015e000b1508000900f2000808f50000200340026
:1015f0000000eb00b05088001e0fe8001e007800cd
:10160000e30f5000eaff3400790307001111800056
:101610000020200000806000e00f500001003a0030
:101620008580a8000080fa00000006003600f8005f
:10163000809fbe00829fbe00849fbe00869fbe002a
:101640003400f80000002000a00188000000fa002b
:101650008580a90011003700a1508000c08f2000b4
:1016600000804000104078002d030700a05080004b
:101670000000e800a0508800a1508000900f2000da
:10168000808f5000020034000000eb00a050880062
:10169000905080000000e800905088009150800039
:1016a000900f2000808f500003003c003a03070099
:1016b000e00f5000e8ff3a000080fa003400f90023
:1016c0004f03be004f02be004f01be004f00be00e0
:1016d0003600f900004006003600f800809fbe008a
:1016e000829fbe00849fbe00869fbe003400f8002b
:1016f00000002000a00188000400fa008560a90015
:10170000400037001011800064006000e00f5000be
:101710000300320030118000004f7800390037009c
:1017200061508000900f2000808f500035003c00f9
:10173000605080000000e800605088003011800098
:10174000004f780081508000208020000080400001
:101750001e4878001e4078004800070010079800d7
:1017600000408000e10f50000c003200e10f5000fb
:1017700003003900e20f50000e003200180037005d
:101780009e00900050022000808f500011003a000f
:101790001000200000408800110037001e0090005b
:1017a000ec0f50000d003a0020002000004088009f
:1017b0000b0037001e009000ee0f500008003a00aa
:1017c00010002000004088000000eb0060508800fe
:1017d0000300370000000000010037000000000097
:1017e000805080000000e800805088008150800018
:1017f000a00f2000808f500002003a000000eb0094
:10180000805088001011800061006000e00f5000df
:10181000bcff3a000080fa003400f9004f03be001c
:101820004f02be004f01be004f00be003600f9005f
:10183000004006000000fa000000eb0000408800b5
:101840000220200000002000117e24001502070065
:10185000e7020700e2020700dee2a900e2e2a900d7
:101860001000200001002000b9030700e2e2a800f8
:10187000004080000080fa00000006000200fa002c
:10188000004f7800b04f800001002000720020005f
:1018900003002000820f5000838f580067003e0035
:1018a00000600100070037000c003700150037000a
:1018b0002d00370035003700400037004900370061
:1018c000540037001e407800e24f500058003a00a4
:1018d00010002000b04f88005800370090c6b300b9
:1018e0009e40780080cf500003003a002000200086
:1018f000b04f8800510037000000eb00b04f880067
:101900004e00370050c2b3009e40780080cf500098
:10191000090032001e407800ec4f500006003200f3
:101920001e407800f14f5000030032001e40780046
:10193000ee4f500009003a009e4078000180fb0005
:10194000c04f880091c6b3001ec04000fae9b7003e
:1019500030002000b04f8800380037000000eb0056
:10196000b04f8800350037009e4078000180fb00b2
:10197000e04f8800fac9bf001e404000fae9b700f6
:1019800040002000b04f88002c0037009e407800b7
:101990000180fb00c800dd00e04f800000804000b7
:1019a000e04f8800fac9bf001e404000fae9b700c6
:1019b00050002000b04f880020003700fac9bf0057
:1019c0009e40780080cf500003003a006000200065
:1019d000b04f8800190037000000eb00b04f8800be
:1019e00016003700e14f800010c0b300e18f5000b7
:1019f000010034000040eb008100e900e14f880065
:101a0000e04f50000c00320070002000b04f880002
:101a10000a0037000000eb00b04f88001e4078003d
:101a2000e34f500005003a00c04f8000040037002b
:101a30000000000001003700000000000000eb0083
:101a40000080fa00000006000000fa00c682a9002b
:101a5000c6a2a900c1a2a900c182a900c002a90012
:101a6000d8e2a900d8c2a900d8a2a9000080fa0033
:101a7000000006000400fa00000f7800110798002b
:101a80001e007800cf80de007200200003002000de
:101a9000820f5000838f580068003e0000600100f4
:101aa00007003700120037001d00370028003700fc
:101ab000330037003d00370048003700530037003f
:101ac0001e00900000407800614060000080fb0034
:101ad000610060004400dd0052168000f1fe2f001e
:101ae00081006100008070005016880053003700ac
:101af0001e00900000407800614060000080fb0004
:101b0000610060004500dd0052168000f1fd2f00ed
:101b10008100610000807000501688004700370087
:101b20001e00900000407800614060000080fb00d3
:101b3000610060004d00dd0022168000f1ff2d00e5
:101b40008100610000807000201688003b00370093
:101b50001e00900000407800614060000080fb00a3
:101b6000610060004c00dd0022168000f1ff2e00b5
:101b70008100610000807000201688002f0037006f
:101b80001e00900000407800614060000080fb0073
:101b90006100600022168000e1ff2f0081006100db
:101ba0000080700020168800240037001e0090007e
:101bb00000407800614060000080fb006100600030
:101bc0004700dd00e2168000f1f72f008100610080
:101bd00000807000e0168800180037001e0090009a
:101be00000407800614060000080fb006100600000
:101bf0004600dd00e2168000f1fb2f00810061004d
:101c000000807000e01688000c0037001e00900075
:101c100000407800614060000080fb0061006000cf
:101c20004500dd00e2168000f1fd2f00810061001b
:101c300000807000e0168800000000000080fa00bc
:101c4000000006000200fa00000f78001e00780075
:101c5000e00f500080003500f00f20009e0078005b
:101c6000808f50007c003c001e007800004078000f
:101c70006140600061406000614060000080fb00e6
:101c8000610060004400dd0052168000f1fe2f006c
:101c90008100610000807000501688001e007800ee
:101ca0000080d100000f78001e007800004078000e
:101cb0006140600061406000614060000080fb00a6
:101cc000610060004500dd0052168000f1fd2f002c
:101cd0008100610000807000501688001e007800ae
:101ce0000080d100000f78001e00780000407800ce
:101cf0006140600061406000614060000080fb0066
:101d0000610060004d00dd0022168000f1ff2d0013
:101d10008100610000807000201688001e0078009d
:101d20000080d100000f78001e007800004078008d
:101d30006140600061406000614060000080fb0025
:101d4000610060004c00dd0022168000f1ff2e00d3
:101d50008100610000807000201688001e0078005d
:101d60000080d100000f78001e007800004078004d
:101d70006140600061406000614060000080fb00e5
:101d80006100600022168000e1ff2f0081006100e9
:101d900000807000201688001e0078000080d100ae
:101da000000f78001e00780000407800614060005d
:101db00061406000614060000080fb0061006000e5
:101dc0004700dd00e2168000f1f72f00810061007e
:101dd00000807000e01688001e0078000080d100ae
:101de000000f78001e00780000407800614060001d
:101df00061406000614060000080fb0061006000a5
:101e00004600dd00e2168000f1fb2f00810061003a
:101e100000807000e01688001e0078000080d1006d
:101e2000000f78001e0078000040780061406000dc
:101e300061406000614060000080fb006100600064
:101e40004500dd00e2168000f1fd2f0081006100f9
:101e500000807000e01688000080fa000000060094
:101e60000200fa00000f78001e007800cf80de002c
:101e70007200200003002000820f5000838f580062
:101e800086003e00006001000700370015003700a3
:101e90002400370033003700420037004f0037007e
:101ea0005e0037006d00370050168000f0006000c3
:101eb00010c0b300e08f5000010032000040eb0082
:101ec0000080fb00610060004400dd0052168000cd
:101ed000f1fe2f0081006100008070005016880024
:101ee0006e003700511680000002200080806000e4
:101ef00010c0b300e08f5000010032000040eb0042
:101f00000080fb00610060004500dd00521680008b
:101f1000f1fd2f00810061000080700050168800e4
:101f20005e003700211680000000220080806000e3
:101f300010c0b300e08f5000010032000040eb0001
:101f40000080fb00610060004d00dd002216800073
:101f5000f1ff2d00810061000080700020168800d4
:101f60004e003700211680000000210080806000b4
:101f700010c0b300e08f5000010032000040eb00c1
:101f80000080fb00610060004c00dd002216800034
:101f9000f1ff2e0081006100008070002016880093
:101fa0003e00370020168000e100600010c0b30042
:101fb000e08f5000010032000040eb000080fb0089
:101fc0006100600022168000e1ff2f0081006100a7
:101fd000008070002016880030003700e116800075
:101fe000000820008080600010c0b300e08f500027
:101ff000010032000040eb000080fb006100600047
:102000004700dd00e2168000f1f72f00810061003b
:1020100000807000e016880020003700e116800084
:10202000000420008080600010c0b300e08f5000ea
:10203000010032000040eb000080fb006100600006
:102040004600dd00e2168000f1fb2f0081006100f8
:1020500000807000e016880010003700e116800054
:10206000000220008080600010c0b300e08f5000ac
:10207000010032000040eb000080fb0061006000c6
:102080004500dd00e2168000f1fd2f0081006100b7
:1020900000807000e0168800000000000080fa0058
:1020a000000006000a00fa00889fbe008a1f780020
:1020b00020079800310798004207980018c0b30025
:1020c00002002000833124002e009000be0090000a
:1020d000b7f90700e00f500001003c000044eb009e
:1020e000e04f54008a00320018c0b3000268290093
:1020f00083b124002e009000be009000aaf90700d2
:10210000e00f5000010035000044eb00e04f5400a8
:102110007f00320021e2a9004e00900000118800eb
:1021200002002000031824002e009000be00900042
:1021300011fa07000001be000068290081c12400d7
:1021400057f907000200200003f82300f6f8070003
:10215000008fbe002062a9001e00be0096f9070095
:10216000000078004011880040118000010020002c
:10217000acf907000001be001e00be00eaf807002f
:1021800018c0b3000200200003f0230088f9070004
:10219000e00f500001003c000044eb00e04f540011
:1021a00003003200401180000000e8004011880068
:1021b000401180000000e8000100200099f90700ac
:1021c0000200200003182400ebf907000001be0004
:1021d0000068290081c1240031f90700008fbe008a
:1021e0002e019000be0190001e00be00cef8070038
:1021f00018c0b3006011b8006bf90700e00f500081
:10220000010035000044eb00e04f540007003200ad
:102210002e019000be0190001e00be00c2f8070013
:102220000004be0009f0a200050037002e01900056
:10223000be0190001e00be00bbf807000004be00f7
:1022400002002000832424002e009000be00900095
:1022500013f907001ac0b3000001be000800be0059
:1022600053f90700e00f500001003c000045eb006f
:10227000e04f5500240032002062a8000200200038
:10228000030824002e009000be009000baf9070059
:102290000001be000068290081c1240000f9070088
:1022a0000200200003f823009ff80700008fbe0003
:1022b0001e00be0040f907000000780040118800b1
:1022c000401180000100200056f907000001be0007
:1022d0001e00be0094f8070018c0b30002002000e2
:1022e00003f0230032f90700e00f500001003c002a
:1022f0000044eb00e04f5400030032004011800026
:102300000000e8004011880021e2a8002342a80054
:102310004f0578004f04be000080fa000000060060
:102320000200fa00004f7800000000001111800048
:102330000020200000806000e00f5000fbff3a000a
:102340009e4078000180fb00201188000080fa0088
:10235000000006000000fa000000000010118000dc
:1023600061006000e00f5000fcff3200301180007f
:10237000004078000080fa00000006000000fa002b
:102380001011800000407800614060000080fb0078
:102390000080fa00000006000000fa001111800021
:1023a000002020008080600010002000e08f50009e
:1023b000010032000000eb000080fa00000006007f
:1023c0000000fa009560a9000080fa0000000600f5
:1023d0000000fa009580a9000080fa0000000600c5
:1023e0000000fa009560a8000080fa0000000600d6
:1023f0000000fa009580a8000080fa0000000600a6
:102400000000fa002143a90020c0b30024e3b70074
:102410004119800000fe2f00008060000000a00035
:102420004019880021e3a80028e3a9000080fa00f1
:10243000000006000400fa00100798001e0090003b
:10244000cf80de007200200003002000820f5000c9
:10245000838f580039003e000060010007003700fc
:102460000c00370011003700160037001b00370042
:1024700020003700250037002a003700411980006e
:1024800000fe2f0000806000f000b30040198800bb
:102490002a0037004119800000fe2f0000806000f4
:1024a000e000b30040198800240037004119800083
:1024b00000fe2f0000806000d000b30040198800ab
:1024c0001e0037004119800000fe2f0000806000d0
:1024d000c000b3004019880018003700411980007f
:1024e00000fe2f0000806000b000b300401988009b
:1024f000120037004119800000fe2f0000806000ac
:10250000a000b300401988000c003700411980007a
:1025100000fe2f00008060009000b300401988008a
:10252000060037004119800000fe2f000080600087
:102530000030a00040198800000000002023a800ff
:10254000c000200001002000070107002023a9008f
:10255000000000000019800061006000e00f5000e2
:10256000fcff3200001880007500b9000000780000
:102570004400de00000f7800f03f20009e0078004d
:10258000808f500002003400f03f2000000f7800e0
:102590001e0078000080fa00000006000000fa002b
:1025a000de02a800de22a800e422a800e402a800bf
:1025b000e582a800e5c2a800c0e2a800c0c2a80049
:1025c0000080fa00000006000400fa0010079800de
:1025d0001e009000cf80de0072002000030020006b
:1025e000820f5000838f580039003e0000600100c8
:1025f000070037000c0037001100370016003700c5
:102600001b00370020003700250037002a00370064
:102610000017800000407800614060000080fb00ef
:10262000000f78002a003700001780000000d1005a
:10263000614060000080fb00000f7800240037003c
:10264000301780000000d100614060000080fb0076
:10265000000f78001e00370030178000004078001f
:10266000614060000080fb00000f78001800370018
:10267000301780004c00de00614060000080fb00ed
:10268000000f780012003700301780004e00de0087
:10269000614060000080fb00000f78000c003700f4
:1026a000101680004700de00614060000080fb00e3
:1026b000000f780006003700101680004600de008c
:1026c000614060000080fb00000f78000000000007
:1026d0001e0078000080fa00000006000000fa00ea
:1026e0006e0007000080eb0050198800f0ff20000a
:1026f00060198800f00f2f00601b880005e1a90019
:102700000000eb0000088800f0c3290010088800d2
:102710000421a90005a1a80021088000f0fc2f00d9
:10272000008060002008880004c1a9008460a9001e
:102730009460a80032ff070098ff0700c2fc070062
:102740000bf907007afa07000080fa000000060083
:102750000400fa00008fbe000700370000c4290003
:1027600001002000800007000080eb008080eb006b
:102770001e0f40005e9748001e00be00e00f500094
:10278000e08f5800f5ff3c000080fa0000000600d2
:102790000000fa00c0508000d15080000080fa0094
:1027a000000006000000fa006000b800c050880079
:1027b000d15088000000eb000008880005e1a80067
:1027c0000080fa00000006000000fa0005e1a90000
:1027d0000080fa0000000600809fbe000000fa00a2
:1027e0008460a900c0508000d1508000610040008a
:1027f000e0804800c0508800d15088000080fa0076
:102800004f00be00004006000400fa00b3ff0700be
:102810000040eb00004f78000c0037009e4078002d
:102820000180fb0003ff0700100798001e009000c6
:102830004280de00100798001e00900001fd070096
:102840004006200001002000c1ff07000000eb004f
:102850005dff0700e00f5000f0ff320000000000b5
:102860000000eb0058ff0700e10f5000fcff3200b2
:102870001e4fe8001e407800e74f5000020036006f
:102880000040eb00004f7800a00f20000100200066
:10289000afff070000000000ecff37000000fa0067
:1028a000e0012000303a8800213a8000f0f32f0048
:1028b00000806000203a8800213a800000fe2f004e
:1028c00000806000203a880032002000800720004d
:1028d000a1092000337420008049780081497800e4
:1028e0008249780012002000600420007105200059
:1028f000237420008049780081497800824978005b
:1029000000000000113a8000000027008080600075
:1029100000002300808f5000faff3a000080fa0088
:0429200000000600ad
:020000040000fa
:10292400fe0900000e00000000000000180a00006c
:10293400040000000000000000080000fe01000088
:10294400000000000c0a00000c000000020000005f
:102954000000000000000000fa0000000000000079
:04296400000000006f
:020000040000fa
:10296800f03fb1000180b10006003500ee03090018
:1029780000000000403fb1000180b100fbff3d00b6
:102988001000b000203fb0000200350000800900b0
:08299800000000000000060031
:020000040000fa
:0200000401f009
:04000c00f8ff0000f9
:020000040000fa
:0200000401f009
:040010007dff000070
:020000040000fa
:0200000401f009
:040014007fff00006a
:020000040000fa
:0200000401f009
:04001c00dfff000002
:00000001FF
