:020000040000fa
:080000000002040000000000f2
:020000040000fa
:100008009402000094020000940200009402000090
:100018009402000094020000940200009402000080
:100028009402000094020000940200005e14000094
:100038009402000094020000940200009402000060
:10004800940200009402000094020000560b000085
:10005800fc0a0000940200009402000094020000d0
:10006800940200009402000094020000da080000e4
:100078009402000094020000940200009402000020
:100088009402000094020000940200009402000010
:100098009402000094020000940200009402000000
:1000a80094020000940200009402000094020000f0
:1000b80094020000940200009402000094020000e0
:1000c80094020000940200009402000094020000d0
:1000d80094020000940200009402000094020000c0
:1000e80094020000940200009402000094020000b0
:1000f80094020000940200009402000094020000a0
:10010800940200009402000094020000940200008f
:10011800940200009402000094020000940200007f
:10012800940200009402000094020000940200006f
:10013800940200009402000094020000940200005f
:10014800940200009402000094020000940200004f
:10015800940200009402000094020000940200003f
:10016800940200009402000094020000940200002f
:10017800940200009402000094020000940200001f
:10018800940200009402000094020000940200000f
:1001980094020000940200009402000094020000ff
:1001a80094020000940200009402000094020000ef
:1001b80094020000940200009402000094020000df
:1001c80094020000940200009402000094020000cf
:1001d80094020000940200009402000094020000bf
:1001e80094020000940200009402000094020000af
:0801f8009402000094020000d3
:020000040000fa
:10020800940200009402000094020000940200008e
:10021800940200009402000094020000940200007e
:100228009402000094020000940200005e14000092
:10023800940200009402000094020000940200005e
:10024800940200009402000094020000560b000083
:10025800fc0a0000940200009402000094020000ce
:10026800940200009402000094020000da080000e2
:10027800940200009402000094020000940200001e
:10028800940200009402000094020000940200000e
:1002980094020000940200009402000094020000fe
:1002a80094020000940200009402000094020000ee
:1002b80094020000940200009402000094020000de
:1002c80094020000940200009402000094020000ce
:1002d80094020000940200009402000094020000be
:1002e80094020000940200009402000094020000ae
:1002f800940200009402000094020000940200009e
:10030800940200009402000094020000940200008d
:10031800940200009402000094020000940200007d
:10032800940200009402000094020000940200006d
:10033800940200009402000094020000940200005d
:10034800940200009402000094020000940200004d
:10035800940200009402000094020000940200003d
:10036800940200009402000094020000940200002d
:10037800940200009402000094020000940200001d
:10038800940200009402000094020000940200000d
:1003980094020000940200009402000094020000fd
:1003a80094020000940200009402000094020000ed
:1003b80094020000940200009402000094020000dd
:1003c80094020000940200009402000094020000cd
:1003d80094020000940200009402000094020000bd
:1003e80094020000940200009402000094020000ad
:0803f8009402000094020000d1
:020000040000fa
:10040000cfa120000eff27000e0188000000000091
:1004100000012000200288000c000700c0522100cb
:100420000100200011000700000020000000e00093
:1004300002003200000002000000000076140200fa
:10044000000000000040da000000fe004440a90067
:10045000000020000000e000030032000000200047
:10046000a00188004440a800000006009101880017
:10047000800078000000eb0015003700e2804000ab
:1004800032a0b4009101ba00e280400032a0b40072
:100490009102ba00e280400032a0b4000002eb00fa
:1004a000472bde00f507b200602ce10004003a00a3
:1004b0000059eb008301e900fdff3e000400370016
:1004c0006128e100010032000082eb000400070017
:1004d0001101ba000200e000e8ff3a000000060047
:1004e0003159ba008301e9000c0032002159ba00e9
:1004f0008301e900080032000400e00003003a0034
:10050000e280400032a0b400f5ff370011d9ba00f4
:100510008301e900faff3a008100e800e180400031
:1005200032a0b400000006000040da000000fe0027
:1005300003f0a200889fbe008a9fbe008c1f780037
:10054000f7000700fe0033006450e1004f00320066
:100550006420e1005200320003826c0007003b007f
:100560000905d0000306d000820f54000c065d0080
:100570000200390002003200890178000306780089
:100580008582550004003d000003fd008103fd004d
:100590008502ea008b854200840f720002003b0056
:1005a00060001000e08018006011b8000005eb004a
:1005b0007a28e1000a00390006007800c75ddd00f6
:1005c000f707b200878075002d0037008281710027
:1005d0000a017800610560008180d1000080d300ad
:1005e0008502e900f9ff3b000604400087844800cb
:1005f00002003b0060041400e0841c000988a30092
:10060000070032008a8171008281710061016400fb
:100610008904d1000884d3008b05e8001700370057
:100620000978a30013003a000b00e0001300340027
:100630008b05e9000804440089844c000a447400d6
:100640000978a3000d003a000b00e0000700340019
:100650008b05e9000804440089844c0001003a003d
:100660000b0020000978a300f7ff32000001eb0027
:1006700002003700828171000a0178006d000700d6
:100680000cf0a70001f0a000b60037006420e100e4
:1006900002003a00838f6c00b60033000801be00f0
:1006a0000200be00af003700889fbe008a9fbe00d8
:1006b0008c1f78009a000700a100330003866c00ad
:1006c0006450e1002e0032006420e100330032006b
:1006d0006150e1002f0032006120e1003100320062
:1006e00085855500eb07b0000900200008042000b4
:1006f000050037000804440089844c000a003100da
:100700000603430087834b000001530081815b0097
:10071000f8ff33000203be000800a00008044400f4
:1007200089844c00f6ff3900c639dd00830173006f
:1007300001003200130020008904d1000884d30096
:100740000998a300050032000800a7000300a000dc
:100750008904d1000884d3008b05e8008904d10006
:100760000884d3000001eb000281d20031000700b1
:1007700001f0a1000cf0a70001f0a0007900370003
:100780006420e1007b0032000801be000200be00d0
:10079000f7ff37006120e100760032006000b8000a
:1007a000f3ff37000000200001f82700f0ff3700ba
:1007b00014002000a6003700f4ff2f00a40037002b
:1007c0000001be00410007000470a70003f0a10073
:1007d00003f8a30013003a006509b10010003200cd
:1007e000090035006928e1000200350001002800f9
:1007f0000000050000004000818048008502e900fb
:10080000fcff3a0000000600f88f420005003500aa
:100810008100d1000080d3008502e800fcff3a008f
:10082000000006008000eb00000005006011b80029
:10083000a200370081002000618055000b003d00c0
:100840000b00200061fe2f000100e1001d003400bc
:1008500082817100610164008904d1000884d300a1
:100860000000e800faff3a00710020006100640017
:1008700003007000020060000900320061044400bf
:10088000e0844c000988a500050032008b05e800d3
:100890006808e10002003a008904d1000884d3000e
:1008a000f20f20000258e10005003d00c75ddd00a9
:1008b000f907b20089807500080078000000060082
:1008c0000bf827008b00780000000500c70ade0047
:1008d000f107b200f50fb20008003200e1cf42008c
:1008e000020032000170a00024000500810f70009a
:1008f000010032000408050044000500810f70006b
:1009000002003a00140005008502e90000004000e2
:1009100081c04800fcff3b000170a00024000500de
:100920000004be00e9ff07000003be000405be008e
:100930000200be00e5ff0700844f750000000600be
:100940000200be006450e100050036006420e100b2
:10095000020036000968a30001003a000800be004a
:100960000160a0004f0678004f05be004f04be0096
:1009700000000600f0ff2f00f1ff2700f9ff37000d
:10098000889fbe008a9fbe008c1f7800e4ff07008e
:10099000ebff330003866c006450e100240032005a
:1009a0006420e100270032006150e10022003200a3
:1009b0006120e100210032008b854200eb07b1008d
:1009c0000134b800003ab8000804420089844a00a3
:1009d000013ab8000030b8008880400009014a00a0
:1009e00004003300000040008180480002014900fb
:1009f0008b05e900c909dd008301700001003200a8
:100a000013002000c814de004814dd004709de0092
:100a10001200b200c808de000884700085ff0700dd
:100a200001f0a1000cf0a70001f0a000cdff3700fd
:100a30006120e100cfff32000801be000200be00cd
:100a4000f7ff37006150e100fcff3a00c9ff3700b3
:100a5000889fbe008a9fbe00841f7800b0ff0700f9
:100a60004f00780011003300f0ff2f00838f6c00df
:100a700006003b00040565000a00a70008003700d7
:100a800009f0a6001000200008003700820f540073
:100a9000838f5c00030039001000200001003e003d
:100aa0000000200009f0a7000000ea004f05be008a
:100ab0004f04be000000e00000000600889fbe005a
:100ac0008a9fbe00008270000402710004827100df
:100ad000260032000004be000200be006011b80013
:100ae0006b092000950220000182cf000a00390026
:100af0000541b1000082cf00070039000541b10077
:100b00000982cf00040039000541b1000882cf00fe
:100b1000010039000541b1000542520012003200c7
:100b20000a003b0082817100610164008100d100f4
:100b30000080d3008984d3000884d3008b05e800ab
:100b40000442e800f7ff3a000700370008044400b9
:100b500089844c0000004800818048008b05e90032
:100b60000442e900f9ff3a0032ff07004f05be00da
:080b70004f04be000000060066
:020000040000fa
:100b78000000fa00e5e2a900c042a900d3a2a9003a
:100b8800d382a900cda2a900d322a900cdc2a90071
:100b9800c1c2a900e442a900c062a900c082a9009c
:100ba800d362a900d342a900d302a900c1e2a900d7
:100bb800c0a2a90011e1a9001021a90084088000a1
:100bc8000440a1000450a100840888000002eb0042
:100bd80034088800f47f20006408880011e1a80028
:100be800240c80000400a1000410a1000420a1002e
:100bf800240c88008461a9000002eb00040c880022
:100c0800240c80000400a1000410a0000420a0000f
:100c1800240c8800c2a2a900540c80000400a10082
:100c28000410a1000420a100540c88008a61a900c6
:100c38000002eb00340c8800540c80000400a10072
:100c48000410a0000420a000540c8800c3e2a900ee
:100c5800840c80000400a1000410a1000420a1005d
:100c6800840c88009061a9000002eb00640c8800e5
:100c7800840c80000400a1000410a0000420a0003f
:100c8800840c8800d502a900b40c80000400a100df
:100c98000410a1000420a100b40c88009661a900ea
:100ca8000002eb00940c8800b40c80000400a10042
:100cb8000410a0000420a000b40c8800d542a900ac
:100cc800e40c80000400a1000410a1000420a1008d
:100cd800e40c88009c61a9000002eb00c40c8800a9
:100ce800e40c80000400a1000410a0000420a0006f
:100cf800e40c8800d562a900140d80000400a1004e
:100d08000410a1000420a100140d8800a261a9000c
:100d18000002eb00f40c8800140d80000400a10010
:100d28000410a0000420a000140d8800c282a900ad
:100d3800440d80000400a1000410a1000420a100bb
:100d4800440d8800a861a9000002eb00240d88006a
:100d5800440d80000400a1000410a0000420a0009d
:100d6800440d8800c262a900740d80000400a1002f
:100d78000410a1000420a100740d8800ae61a90030
:100d88000002eb00540d8800740d80000400a100df
:100d98000410a0000420a000740d8800e642a900f9
:100da8000080fa00000006000200fa00000f780038
:100db8001e027800cfa2de00760020000700200087
:100dc800860f5200878f5a0019003e000460010008
:100dd8000700370008003700090037000a0037000d
:100de8000b0037000c0037000d0037000e003700ed
:100df800c242a8000e003700e7e2a8000c00370046
:100e0800d582a8000a003700d5a2a800080037003c
:100e1800d522a80006003700cfa2a800040037009a
:100e2800c3c2a80002003700cfc2a800000000001b
:100e38000080fa00000006000200fa00000f7800a7
:100e48001e027800cfa2de007600200007002000f6
:100e5800860f5200878f5a0019003e000460010077
:100e68000700370008003700090037000a0037007c
:100e78000b0037000c0037000d0037000e0037005c
:100e8800c242a9000e003700e7e2a9000c003700b3
:100e9800d582a9000a003700d5a2a90008003700aa
:100ea800d522a90006003700cfa2a9000400370008
:100eb800c3c2a90002003700cfc2a9000000000089
:100ec8000080fa00000006000800fa0020079800d9
:100ed800310798003e029000e00f520006003d00e6
:100ee8003e0290000402ea00140798000002eb009a
:100ef800040f780007003700650880003e02900064
:100f0800048252000402e80014079800140020002c
:100f1800040f78009e029000640880000402e80034
:100f2800848f520004003600640880000402e80040
:100f380014079800050037001e029000e00f5200c9
:100f480002003d000002eb00140798002e029000fa
:100f5800cfa2de007600200007002000860f520096
:100f6800878f5a0078003e000460010007003700b0
:100f780014003700210037002e0037003b003700ef
:100f88004800370055003700610037001e0278001e
:100f980004427800614262000482fb006102620040
:100fa8004222dd0036178000b5ff2f00850263005e
:100fb80004827200341788001e029000540d8800c5
:100fc800610037001e027800044278006142620026
:100fd8000482fb00610262004322dd0016168000d5
:100fe80075ff2f00850263000482720014168800c2
:100ff8001e029000240d8800530037001e0278005e
:1010080004427800614262000482fb0061026200cf
:101018004422dd0016168000f5fe2f0085026300cd
:1010280004827200141688001e029000f40c8800d6
:10103800450037001e0278000442780061426200d1
:101048000482fb00610262004b22dd00a6168000cc
:10105800f57f2f008502630004827200a4168800c1
:101068001e029000c40c8800370037001e0278006a
:1010780004427800614262000482fb00610262005f
:101088004a22dd00a6168000f5bf2f008502630006
:1010980004827200a41688001e029000940c880036
:1010a800290037001e02780004427800614262007d
:1010b8000482fb00610262004822dd00a61680005f
:1010c800f5ef2f008502630004827200a4168800e1
:1010d8001e029000640c88001b0037001e02780076
:1010e80004427800614262000482fb004f22dd0066
:1010f80016168000f5ff270085026300048272003f
:10110800141688001e029000340c88000e00370068
:101118001e02780004427800614262000482fb00eb
:10112800610262004522dd0016168000f5fd2f00e1
:101138008502630004827200141688001e02900063
:10114800040c8800000000000080fa00000006007f
:101158000000fa006022b80024508800355088004a
:10116800341780004722de00614262000482fb00df
:10117800045088006022b800445088005550880008
:10118800341780004922de00614262000482fb00bd
:10119800145088006120a8006160a8008660a9003a
:1011a8009660a8000080fa0000000600849fbe0038
:1011b8000000fa008660a900341780004722de008c
:1011c800614262000482fb00f44f8800f54f800002
:1011d80004508000848f520016003200f44f8000c3
:1011e80004508800341780004622de006142620005
:1011f8008482fb00f44f8000848f52000700320085
:10120800245080003550800061024200e0824a008c
:10121800245088003550880006003700245080008c
:101228003550800061025200e0825a002450880044
:1012380035508800341780004922de006142620080
:101248000482fb00f44f8800f54f800014508000a2
:10125800848f520016003200f44f8000145088002a
:10126800341780004822de00614262008482fb005d
:10127800f44f8000848f52000700320044508000f1
:101288005550800061025200e0825a0044508800a4
:1012980055508800060037004450800055508000a3
:1012a80061024200e0824a0044508800555088009c
:1012b8000080fa004f02be00004006000600fa0057
:1012c800200798002e029000e00f520006003a0016
:1012d8009660a9002450800035508000048fbe001d
:1012e8009660a8000b0037002e029000e10f520014
:1012f80006003a009660a9004450800055508000ce
:10130800048fbe009660a800020037006022b80073
:10131800048fbe001e02be000400be000080fa005a
:10132800000006000000fa00044080000400780075
:101338000080fa00000006000000fa0064508000f7
:10134800040078000080fa00000006000000fa009f
:1013580094508000040078000080fa000000060025
:101368000400fa0014002000140798001800370041
:101378004504070064508000e00f52001300340059
:10138800645080000402e9006450880075508000b1
:10139800248020000482420014427800044f780020
:1013a800745080000402e800745088007550800072
:1013b800940f2000848f5200020034000002eb00da
:1013c800745088000002eb001407980036040700e8
:1013d8001e029000e00f5200e5ff3a001e4278001e
:1013e800044078000080fa00000006000400fa00bb
:1013f8002047980014002000040f780018003700d8
:101408002504070094508000e00f520013003400b8
:10141800945080000402e90094508800b65080007f
:101428002e429000c58f200085024300844a780030
:10143800b45080000402e800b4508800b550800021
:10144800940f2000848f5200020034000002eb0049
:10145800b45088000002eb00040f7800160407005f
:101468001e027800e00f5200e5ff3a0015118000d7
:101478000420200004826200e00f520001003a00bc
:101488008580a8000080fa00000006000400fa0029
:101498000002eb00040f780006003700b0ff0700d9
:1014a800004278008e82e8009e824200844a7800da
:1014b8001e0fe8001e027800e10f5200f7ff34000b
:1014c8001e029000040078000080fa000000060068
:1014d8000200fa00000f78001e027800044278002b
:1014e80004407800c1ff07001e02780048a2de0011
:1014f8000442780004407800bcff07000080fa002e
:10150800000006000600fa000002eb00040f780055
:101518000600370092ff0700004278008e82e8003c
:101528009e824200844a78001e0fe8001e0278005e
:10153800e30f5200f7ff34001e029000ae02900045
:101548000400be000080fa00000006000a00fa004d
:1015580030079800410798003e029000ce029000a4
:1015680014079800250798000002eb00040f780084
:10157800060037000e82e8001e024200144278007e
:101588000440780099ff07001e0fe8001e0278004b
:10159800e30f5200f7ff34000080fa000000060055
:1015a8000400fa00100798000002eb00040f78000e
:1015b800070037001e0278009e0290000482420055
:1015c800144278000440780088ff07001e0fe800e6
:1015d8001e0278009e0290000482420014427800a5
:1015e800e04f5200f3ff3a000080fa0000000600c6
:1015f8003600f800809fbe00829fbe00849fbe0018
:10160800869fbe003400f80000002000a00188007a
:101618000000fa008580a90012003700a55080005c
:10162800c48f2000048242001442780004407800ed
:101638006a030700a45080000402e800a450880050
:10164800a5508000940f2000848f520002003400bf
:101658000002eb00a4508800945080000402e800c7
:101668009450880095508000940f2000848f520079
:1016780004003c007903070000027800e00f5200e4
:10168800e6ff3a000080fa003400f9004f03be007c
:101698004f02be004f01be004f00be003600f900e9
:1016a800004006003600f800809fbe00829fbe0002
:1016b800849fbe00869fbe003400f8000000200012
:1016c800a00188000400fa008560a90045003700e1
:1016d8001411800064026200e00f5200030032001f
:1016e80034118000044f78003e00370065508000b8
:1016f800940f2000848f52003a003c006450800010
:101708000402e8006450880034118000044f780017
:101718008550800024802000048242001e4a780000
:10172800845080000402e8008450880085508000be
:10173800a40f2000848f520002003a000002eb0040
:10174800845088001e4078004a0007000002780094
:101758001407980004408000e10f52000c0032008a
:10176800e10f520003003900e20f5200120032006c
:101778001c0037009e02900054022000848f520003
:1017880015003a00140020000440880015003700b6
:101798001e029000ec0f520011003a0024002000b5
:1017a800044088000002eb006450880084508000e8
:1017b800745088000b0037001e029000ee0f520094
:1017c80008003a0014002000044088000002eb00e2
:1017d8006450880003003700000000000100370053
:1017e800000000001411800061026200e00f520046
:1017f800b7ff3a000080fa003400f9004f03be003a
:101808004f02be004f01be004f00be003600f90077
:10181800004006000000fa000002eb0004408800c7
:101828000220200000002000117e24002a02070068
:10183800210307001c030700dee2a900e2e2a90079
:101848001000200001002000f7030700e2e2a800d2
:1018580000000000b3fe070000027800e00f52000d
:10186800fcff320004408000040078000080fa0089
:10187800000006000200fa00004f7800b44f800014
:10188800050020007600200007002000860f520087
:10189800878f5a006d003e00046001000700370082
:1018a8000c003700150037002e00370038003700cd
:1018b800450037004f0037005a0037001e427800b5
:1018c800e24f52005e003a0014002000b44f880036
:1018d8005e00370094c6b3009e42780084cf520061
:1018e80003003a0024002000b44f88005700370056
:1018f8000002eb00b44f88005400370054c2b30014
:101908009e42780084cf5200090032001e427800bf
:10191800ec4f5200060032001e427800f14f520090
:10192800030032001e427800ee4f52000a003a00cf
:101938001e4078000082fb00c44f880095c6b300a3
:101948001ec2420004407800fae9b70034002000c3
:10195800b44f88003d0037000002eb00b44f880008
:101968003a0037009e4278000582fb00e44f880069
:10197800a49f2000144278001e42420004407800d0
:10198800fae9b70044002000b44f88002f00370060
:101998009e4278000582fb00c822dd00e44f8000eb
:1019a80004824200e44f8800a49f2000144278007b
:1019b8001e42420004407800fae9b70054002000b3
:1019c800b44f880021003700a49f200014427800fb
:1019d8009e42780084cf520003003a006400200041
:1019e800b44f8800190037000002eb00b44f88009c
:1019f80016003700e54f800014c0b300e18f520095
:101a0800010034000042eb008502e900e54f880040
:101a1800e04f52000c00320074002000b44f8800e0
:101a28000a0037000002eb00b44f88001e4278001d
:101a3800e34f520005003a00c44f8000040037000d
:101a48000000000001003700000000000002eb0069
:101a5800040078000080fa00000006000000fa0088
:101a6800c682a900c6a2a900c1a2a900c182a90074
:101a7800c002a900d8e2a900d8c2a900d8a2a9002a
:101a88000080fa00000006000400fa00000f780049
:101a9800110798001e027800cfa2de007600200011
:101aa80007002000860f5200878f5a0068003e000a
:101ab8000460010007003700120037001d003700de
:101ac80028003700330037003d0037004800370052
:101ad800530037001e029000044278006142620001
:101ae8000482fb00610262004422dd005616800079
:101af800f5fe2f00850263000482720054168800e8
:101b0800530037001e0290000442780061426200d0
:101b18000482fb00610262004522dd005616800047
:101b2800f5fd2f00850263000482720054168800b8
:101b3800470037001e0290000442780061426200ac
:101b48000482fb00610262004d22dd00261680003f
:101b5800f5ff2d00850263000482720024168800b8
:101b68003b0037001e029000044278006142620088
:101b78000482fb00610262004c22dd002616800010
:101b8800f5ff2e0085026300048272002416880087
:101b98002f0037001e029000044278006142620064
:101ba8000482fb006102620026168000e5ff2f0018
:101bb800850263000482720024168800240037001e
:101bc8001e02900004427800614262000482fb0019
:101bd800610262004722dd00e6168000f5f72f005b
:101be8008502630004827200e4168800180037003a
:101bf8001e02900004427800614262000482fb00e9
:101c0800610262004622dd00e6168000f5fb2f0027
:101c18008502630004827200e41688000c00370015
:101c28001e02900004427800614262000482fb00b8
:101c3800610262004522dd00e6168000f5fd2f00f6
:101c48008502630004827200e41688000000000028
:101c58000080fa00000006000200fa00000f780079
:101c68001e027800e00f520080003500f40f2000bb
:101c78009e027800848f52007c003c001e0278008f
:101c8800044278006142620061426200614262007f
:101c98000482fb00610262004422dd0056168000c7
:101ca800f5fe2f0085026300048272005416880036
:101cb8001e0278000482d100040f78001e0278000a
:101cc800044278006142620061426200614262003f
:101cd8000482fb00610262004522dd005616800086
:101ce800f5fd2f00850263000482720054168800f7
:101cf8001e0278000482d100040f78001e027800ca
:101d080004427800614262006142620061426200fe
:101d18000482fb00610262004d22dd00261680006d
:101d2800f5ff2d00850263000482720024168800e6
:101d38001e0278000482d100040f78001e02780089
:101d480004427800614262006142620061426200be
:101d58000482fb00610262004c22dd00261680002e
:101d6800f5ff2e00850263000482720024168800a5
:101d78001e0278000482d100040f78001e02780049
:101d8800044278006142620061426200614262007e
:101d98000482fb006102620026168000e5ff2f0026
:101da8008502630004827200241688001e027800ef
:101db8000482d100040f78001e02780004427800e3
:101dc8006142620061426200614262000482fb007b
:101dd800610262004722dd00e6168000f5f72f0059
:101de8008502630004827200e41688001e027800ef
:101df8000482d100040f78001e02780004427800a3
:101e08006142620061426200614262000482fb003a
:101e1800610262004622dd00e6168000f5fb2f0015
:101e28008502630004827200e41688001e027800ae
:101e38000482d100040f78001e0278000442780062
:101e48006142620061426200614262000482fb00fa
:101e5800610262004522dd00e6168000f5fd2f00d4
:101e68008502630004827200e41688000080fa008c
:101e7800000006000200fa00000f78001e02780039
:101e8800cfa2de007600200007002000860f520057
:101e9800878f5a008e003e0004600100070037005b
:101ea8001600370026003700360037004600370096
:101eb800540037006400370074003700541680005f
:101ec8007002620004f0a7000402ea000402e900bc
:101ed8004f22de00044278000482fb0061026200a7
:101ee8004422dd0056168000f5fe2f0085026300af
:101ef8000482720054168800750037005516800059
:101f0800040220000482620004f0a7000402ea0030
:101f18000402e9004f22de00044278000482fb003c
:101f2800610262004522dd0056168000f5fd2f0093
:101f3800850263000482720054168800640037002a
:101f480025168000040022000482620004f0a70025
:101f58000402ea000402e9004f22de00044278008d
:101f68000482fb00610262004d22dd00261680001b
:101f7800f5ff2d0085026300048272002416880094
:101f880053003700251680000400210004826200f7
:101f980004f0a7000402ea000402e9004f22de0070
:101fa800044278000482fb00610262004c22dd00da
:101fb80026168000f5ff2e00850263000482720059
:101fc800241688004200370024168000610262004f
:101fd80004f0a7000402ea000402e9004f22de0030
:101fe800044278000482fb00610262002616800029
:101ff800e5ff2f0085026300048272002416880022
:1020080033003700e51680000408200004826200cf
:1020180004f0a7000402ea000402e9004f22de00ef
:10202800044278000482fb00610262004722dd005e
:10203800e6168000f5f72f0085026300048272001f
:10204800e416880022003700e5168000040420000a
:102058000482620004f0a7000402ea000402e90016
:102068004f22de00044278000482fb006102620015
:102078004622dd00e6168000f5fb2f00850263008e
:1020880004827200e416880011003700e51680000b
:10209800040220000482620004f0a7000402ea009f
:1020a8000402e9004f22de00044278000482fb00ab
:1020b800610262004522dd00e6168000f5fd2f0072
:1020c8008502630004827200e416880000000000a4
:1020d8000080fa00000006000a00fa00889fbe008f
:1020e8008a1f780020079800310798004207980057
:1020f80018c0b30002002000833124002e00900095
:10210800be009000aaf9070000027800e00f520014
:1021180001003c000044eb00e04f5400ab003200eb
:1021280018c0b3000268290083b124002e00900073
:10213800be0090009cf9070000027800e00f5200f2
:10214800010035000044eb00e04f54009f003200ce
:1021580021e2a9004e02900004118800020020002c
:10216800031824002e009000be00900002fa070019
:102178000002be000401be000068290081c12400dd
:1021880047f907000002be000200200003f8230000
:102198000400be00e4f807000002be00048fbe0081
:1021a8002062a9001e00be0083f907000002be00dd
:1021b80004027800441188004411800005002000c2
:1021c8000400be0097f907000002be000401be002b
:1021d8001e00be00d4f807000002be0018c0b300fd
:1021e8000200200003f023000400be0070f907007d
:1021f80000027800e00f520001003c000044eb00b0
:10220800e04f540003003200441180000402e8004b
:1022180044118800441180000402e80005002000f1
:102228000400be007ff907000002be000200200083
:10223800031824000400be00cff907000002be0006
:102248000401be000068290081c1240014f90700b8
:102258000002be00048fbe002e019000be01900057
:102268001e00be00b0f807000002be0018c0b30090
:102278006011b8000400be004bf9070000027800a6
:10228800e00f5200010035000044eb00e04f54001d
:10229800080032002e019000be0190001e00be0012
:1022a800a1f807000002be000404be0009f0a20065
:1022b800060037002e019000be0190001e00be00ef
:1022c80099f807000002be000404be0002002000c6
:1022d800832424002e009000be009000f0f8070030
:1022e8000002be001ac0b3000401be000800be0010
:1022f8002ff9070000027800e00f520001003c00af
:102308000045eb00e04f55002e0032002062a80087
:1023180002002000030824002e009000be00900058
:1023280095f907000002be000401be0000682900fc
:1023380081c12400daf807000002be000200200074
:1023480003f823000400be0077f807000002be006f
:10235800048fbe001e00be0017f907000002be0071
:102368000402780044118800441180000500200010
:102378000400be002bf907000002be000401be00e5
:102388001e00be0068f807000002be0018c0b300b7
:102398000200200003f023000400be0004f9070037
:1023a80000027800e00f520001003c000044eb00fe
:1023b800e04f540003003200441180000402e8009a
:1023c8004411880021e2a8002342a8004f057800a4
:1023d8004f04be000080fa00000006000200fa0068
:1023e800004f780000000000151180000420200034
:1023f80004826200e00f5200fbff3a009e42780020
:102408000582fb00241188000080fa000000060005
:102418000000fa0000000000141180006102620050
:10242800e00f5200fcff32003411800004427800b3
:10243800044078000080fa00000006000000fa005e
:102448001411800004427800614262000482fb009b
:10245800040078000080fa00000006000000fa007e
:1024680015118000042020000482620004f0a700f7
:102478000402ea000402e9004f22de0004007800aa
:102488000080fa00000006000000fa009560a9002c
:102498000080fa00000006000000fa009580a900fc
:1024a8000080fa00000006000000fa009560a8000d
:1024b8000080fa00000006000000fa008580a900ec
:1024c8009580a8000080fa00000006000000fa00cd
:1024d8002143a90024c0b3000440780024e3b700d6
:1024e8004519800004fe2f00048262000400a00049
:1024f8004419880021e3a80028e3a9000080fa0015
:10250800000006000400fa00100798001e02900060
:10251800cfa2de007600200007002000860f5200c0
:10252800878f5a0039003e00046001000700370019
:102538000c00370011003700160037001b00370069
:1025480020003700250037002a0037004519800091
:1025580004fe2f0004826200f400b30044198800ce
:102568002a0037004519800004fe2f00048262000b
:10257800e400b3004419880024003700451980009e
:1025880004fe2f0004826200d400b30044198800be
:102598001e0037004519800004fe2f0004826200e7
:1025a800c400b3004419880018003700451980009a
:1025b80004fe2f0004826200b400b30044198800ae
:1025c800120037004519800004fe2f0004826200c3
:1025d800a400b300441988000c0037004519800096
:1025e80004fe2f00048262009400b300441988009e
:1025f800060037004519800004fe2f00048262009f
:102608000430a00044198800000000002023a8001e
:10261800c0002000010020001e0107002023a9009f
:10262800000000000419800061026200e00f5200ff
:10263800fcff3200041880007522b90004027800fb
:102648004422de00040f7800f43f20009e02780048
:10265800848f520002003400f43f2000040f7800f9
:102668001e027800040078000080fa0000000600ce
:102678000000fa00de02a800de22a800e422a8007a
:10268800e402a800e582a800e5c2a800c0e2a8000c
:10269800c0c2a8000080fa00000006000400fa008a
:1026a800100798001e029000cfa2de0076002000de
:1026b80007002000860f5200878f5a0039003e001d
:1026c80004600100070037000c00370011003700d4
:1026d800160037001b0037002000370025003700a0
:1026e8002a00370004178000044278006142620023
:1026f8000482fb00040f78002a00370004178000ca
:102708000402d100614262000482fb00040f7800d9
:1027180024003700341780000402d10061426200af
:102728000482fb00040f78001e0037003417800075
:1027380004427800614262000482fb00040f7800c2
:1027480018003700341780004c22de006142620016
:102758000482fb00040f7800120037003417800051
:102768004e22de00614262000482fb00040f780002
:102778000c003700141680004722de006142620018
:102788000482fb00040f780006003700141680004e
:102798004622de00614262000482fb00040f7800da
:1027a800000000001e027800040078000080fa0093
:1027b800000006000000fa00830007000082eb001a
:1027c80054198800f4ff200064198800f40f2f00c2
:1027d800641b880005e1a9000002eb0004088800da
:1027e800f4c32900140888000421a90005a1a80041
:1027f800240880000440a1000450a1002408880097
:1028080004c1a9008460a9009460a8002fff0700f4
:1028180097ff070091fc0700d5f807004cfa07005e
:102828000080fa00000006000400fa00008fbe00d5
:102838000700370000c429000100200095000700a8
:102848000082eb008082eb001e0f42005e974a0078
:102858001e02be00e00f5200e08f5a00f5ff3c0058
:102868000080fa00000006000000fa00c450800052
:10287800d55080000400be000080fa000000060069
:102888000000fa006022b800c4508800d5508800c3
:102898000002eb000408880005e1a8000080fa00a7
:1028a800000006000000fa0005e1a9000080fa0017
:1028b80000000600849fbe000000fa008460a900a2
:1028c800c4508000d550800061024200e0824a0076
:1028d800c4508800d55088000080fa004f02be001e
:1028e800004006000a00fa00b2ff0700c9fb070013
:1028f8008cfa070000027800e20f5200060032004e
:10290800700020005bfd0700a00f200001002000e0
:10291800c5ff0700f6ff37001100200070002000f7
:1029280059fc0700d9fa070000027800340798001c
:10293800d6fa070000027800440798004e0290007b
:10294800cfa2de00048fbe00cdff07000002eb001f
:10295800240798001200370000000000c2ff07009b
:102968000002be00be0f5200ae8f5a00fbff3500ba
:102978000000eb00e3fe0700000278000400780086
:10298800d3fa07004e029000cfa2de001e0f4200cd
:102998005e974a002e0290000402e800240798007f
:1029a800ae0290003e029000848f5200eaff35008c
:1029b800000000005bfa070000027800e20f5200f6
:1029c800fcff3200caff37000000fa00e4012000d3
:1029d800343a8800243a80000460a1000470a10001
:1029e800243a8800253a800004fe2f000482620001
:1029f800243a88003600200084072000a50920001a
:102a080037742000844b7800854b7800864b78001b
:102a1800160020006404200075052000277420009b
:102a2800844b7800854b7800864b780000000000c6
:102a3800153a800004002700848262000400230005
:102a4800848f5200faff3a000080fa000000060066
:020000040000fa
:102a5800180a000004000000000000000008000040
:102a6800fe010000000000000c0a00000c0000003d
:102a7800020000000000000000000000fa00000052
:102a880000000000fe0900000e0000000000000029
:042a9800000000003a
:020000040000fa
:102a9c00f03fb1000180b10006003500ee030900e3
:102aac0000000000403fb1000180b100fbff3d0081
:102abc001000b000203fb00002003500008009007b
:082acc000000000000000600fc
:020000040000fa
:0200000401f009
:04000c00f8ff0000f9
:020000040000fa
:0200000401f009
:040010007dff000070
:020000040000fa
:0200000401f009
:040014007fff00006a
:020000040000fa
:0200000401f009
:04001c00dfff000002
:00000001FF
